:020000008A284C
:10000800A000030E8301BA000A08B50003308A0075
:10001800732B03178D0083168C130C1483120C0892
:10002800852803178C0083168C130C1555308D000A
:10003800AA308D008C148C181F280C118528A40157
:10004800A300FF30A307031CA407031C8528033063
:10005800A200DF3031202528A201E83EA100A20934
:10006800FC30031C3A28A10703183728A1076400AD
:10007800A20F372821184028A11C44280000442832
:100088000800A201A401A30002305428A201A4017F
:10009800A30006305428A201A401A3000430542868
:1000A800A90024082202031D5B282308210204302A
:1000B80003180130031902302905031DFF30852874
:1000C8000038031DFF300405031DFF308528040494
:1000D800031DFF3085281030A900A201A101A80C3A
:1000E800A70C031C7D282308A10724080318240F44
:1000F800A207A20CA10CA60CA50CA90B7328250815
:10010800852883130313831264000800F5018A11FC
:100118004E2C64005908073C8A11031DA928013098
:100128005A07CC00CD01CD0D4C08A7004D08A800FA
:100138001630A300A4018A016F20CC002608CD0048
:100148004D08A4004C088A01242064005908083C82
:100158008A11031DC52801305A07CC00CD01CD0DE9
:100168004C08A7004D08A8001030A300A4018A017C
:100178006F20CC002608CD004D08A4004C088A0149
:1001880024205908A10009308A014520CC005908CB
:10019800A10005308A014520CE004C0884004E0895
:1001A8008A016B20CE00CF005908A10004308A01D3
:1001B8004520D0004E084F04840050088A016B2067
:1001C800D000D1006400500851048A110319022993
:1001D80001305A07CC00CD01CD0D4C08A7004D08C1
:1001E800A8000C30A300A4018A016F20CC002608C7
:1001F800CD004D08A4004C088A01242008006A0894
:10020800193C8A11031C2B298A110D21E8008A1137
:100218002B2901308A006A088207EC34F1349C34B7
:10022800F1349C348C34BC346C34913478340C34D0
:100238001C346E346E34FC34CC34FC34CC34B434DA
:1002480081347C340C346C340234023490346A08BF
:10025800193C8A11031C53298A113521E9008A1196
:10026800532901308A006A08820744345034003424
:100278001034443404344034443410340034A43446
:10028800003480342034003444342034643444341A
:100298001034003488342834A834883488348A11D7
:1002A800BB2C6A08093C8A11031C6D298A115F213D
:1002B800E8008A116D2901308A006A088207FC3437
:1002C8006034D834F0346434B434BC34E034FC34AE
:1002D800E4346A08093C8A11031C85298A117721AC
:1002E800E9008A11852901308A006A088207883462
:1002F80000344434443444344434443400344434BE
:1003080044348A11BB2C6A08093C8A11031C9F29B2
:100318008A119121E8008A119F2901308A006A0810
:100328008207FC340134D034B03404349434BC34FF
:1003380080341E34E4346A08093C8A11031CB72946
:100348008A11A921E9008A11B72901308A006A08AF
:100358008207883410344834C0348C34243444340C
:100368009034243444348A11BB2C6A08093C8A111D
:10037800031CD1298A11C321E8008A11D12901302F
:100388008A006A0882077034003490349034043448
:10039800923410348034923482346A08093C8A11C9
:1003A800031CE9298A11DB21E9008A11E9290130B6
:1003B8008A006A088207883488348834A0348C34E8
:1003C8002034A8348834A83488348A11BB2C6A08AD
:1003D800093C8A11031C0B2A8A11F521E8008A11AD
:0A03E8000B2A02308A006A08002A7E
:1004000082071E346034983490340434B23430346B
:100410008034B43484346A08093C8A11031C232ACA
:100420008A111522E9008A11232A02308A006A08FB
:100430008207203480348434A43494344034C83463
:100440009034CC3494348A11BB2C6A08093C8A114C
:10045000031C3D2A8A112F22E8008A113D2A02300E
:100460008A006A088207FC346034D834F034663479
:10047000B634BC34C034FE34E4346A08093C8A1112
:10048000031C552A8A114722E9008A11552A023095
:100490008A006A088207A834C034CC34E034E434DB
:1004A00064346C34D0344C34A4348A11BB2C6A08C4
:1004B000093C8A11031C6F2A8A116122E8008A1103
:1004C0006F2A02308A006A088207FC3400346E34D6
:1004D000FD3491346C346C349C34FD349D346A08A2
:1004E000093C8A11031C872A8A117922E9008A11A2
:1004F000872A02308A006A08820744344434483428
:1005000010341434A434E4340034543414348A11D0
:10051000BB2C6A08093C8A11031CA12A8A11932268
:10052000E8008A11A12A02308A006A088207FC3496
:10053000603416349234063450348C34813426348A
:1005400016346A08093C8A11031CB92A8A11AB22A5
:10055000E9008A11B92A02308A006A088207283421
:10056000A0340C340C345434E0340C3490346434FF
:1005700024348A11BB2C6A08093C8A11031CD32A33
:100580008A11C522E8008A11D32A02308A006A083B
:1005900082076E340F340E340E340E3460346034FF
:1005A0006034623461346A08093C8A11031CEB2A06
:1005B0008A11DD22E9008A11EB2A02308A006A08DA
:1005C0008207A8340834883448342834B034A83436
:1005D000A434A034A0348A11BB2C6A08093C8A11C7
:1005E000031C0B2B8A11F722E8008A110B2B033016
:0605F0008A006A08002BDE
:1006000082078034C034E034F034F834FC34FE34F3
:10061000FF34FF34FF346A08093C8A11031C232B82
:100620008A111523E9008A11232B03308A006A08F6
:1006300082070034003400340034003400340034C5
:1006400000348034C0348A11BB2C6A08093C8A11FA
:10065000031C3D2B8A112F23E8008A113D2B033008
:100660008A006A0882078034403420341034083409
:10067000043402340134003400346A08093C8A111D
:10068000031C552B8A114723E9008A11552B03308F
:100690008A006A08820700340034003400340034D1
:1006A000003400340034803440348A11BB2C6400A0
:1006B0007E306A028A11031C5F2B8A11BB2C6A08E8
:1006C000A700A8010230A300A4018A016F20D7006F
:1006D00057088A010D20E800D70A57088A010D2023
:1006E000E9008A11BB2C0B1F3F2C8C1E3F2C1A08D3
:1006F000EE00990000000C1E7B2B6D18852B6D14ED
:100700006E08243A031D3A2C472CED188D2BED145E
:100710006E08423A031D3A2C472C6D19952B6D1526
:100720006E08373A031D3A2C472CED19C52BED15F1
:10073000EF016E08F0004D3A0319B32B7008463AEA
:100740000319B92B7008573A0319B62B7008453AAC
:100750000319BC2B7008533A0319BF2B7008553A84
:100760000319C22B3A2C0130F400472C0230F4005C
:10077000472C0330F400472C0430F400472C05309C
:10078000F400472C0730F400472C6E080D3A03198B
:10079000E62B7408023A031DDB2B11306F0203189D
:1007A000472C3B306F0784006E0880006F08FF3ACB
:1007B000031DEF0A472C6F08FF3A031DEF0A6F086D
:1007C0005506031D472C6E08EA00472C55086F029A
:1007D000031C3A2C6A08213A03193A2C7408033A8C
:1007E000031DFB2B6A08DB003030DB025B08D800FE
:1007F000FD30D700152C7408043A031D082C6A0834
:10080000D9003030D9025908D800FE30D700152C55
:100810007408053A031D2B2C6A08DA003030DA021E
:100820005A08D800FF30D700152C831203130D127D
:10083000570803178D000313580803178C008316FD
:100840008C130C1555308D00AA308D008C140000CF
:10085000831203133A2C7408073A031D382C6A08D4
:10086000303A0319F5136A08313A0319F5173A2C8F
:10087000D414472CEF01F401ED01D410472C0B1DCB
:10088000472C0B11F20B472C54147308F200350857
:100890008A003A0E8300A00E200E090083168730CE
:1008A0009F00850120308600870183128501860123
:1008B00087018B0183168C0187308100831294019C
:1008C00083169401831203179E019F01831603135D
:1008D0009B018312831690011830990061308F00BC
:1008E000A43098008312903098001830F3007308F9
:1008F000F200EF01D3010130D600F5012030EA000B
:10090000D401F401E201E301E801E901DB01013076
:10091000D9000330DA000C1E8B2CAB30990000009C
:100920000C1E902C01308A01232018121A081A0874
:100930001A08181600000000AB30990000000C1EC9
:100940009F2C05308A0123201A08AB3A0319B02CDA
:100950000130D500EA00990000000C1EAD2C042ED9
:100960008C1EB02C1A08013ED500990000000C1E08
:10097000B72C8A11042EE81BE417E81FE413681B48
:100980006214681F6210E81A6215E81E6211681A84
:100990006414681E6410E8196317E81D631368196E
:1009A0006417681D6413E818E416E81CE41268185C
:1009B0006416681C6412E91B6216E91F6212691B47
:1009C000E216691FE212E91AE214E91EE210691A3E
:1009D000E415691EE411E9196316E91D631269192A
:1009E0006415691D6411E918E414E91CE410F51B91
:1009F000E4148A11DF2EED01D4108316D4106400A4
:100A000083127408003C8A110319082D8A110B2DDA
:100A1000EF01F40108007308F20064007408023C5E
:100A20008A1103193A2DF40164005B08253C8A11F0
:100A30000319352D2F30A1006A088A014F20CC0000
:100A40006A08A1003A308A014F20CE004C08840089
:100A50004E088A016420CE00CF0064004E084F0487
:100A60008A110319352D3030EA02D4178316D413B6
:100A70008312080064005B08253C8A110319412D8C
:100A80000800F40164007E303B028A11031C492DEA
:100A900008003B08A700A8010230A300A4018A01B6
:100AA0006F20D700D80164003C08313C8A11031D37
:100AB0005D2DD8178316D813831264003D08313C8E
:100AC0008A11031D672D581783165813831264006B
:100AD0003E08313C8A11031D712DD8168316D81299
:100AE000831264003F08313C8A11031D7B2D581688
:100AF00083165812831264004008313C8A11031D8A
:100B0000852DD8158316D811831264004108313C15
:100B10008A11031D8F2D58158316581183126400F6
:100B20004208313C8A11031D992DD8148316D81020
:100B3000831264004308313C8A11031DA32D58140D
:100B4000831658108312570803178D000313580893
:100B50008A011520D70AD80164004408313C8A1163
:100B6000031DB62DD8178316D813831264004508C9
:100B7000313C8A11031DC02D581783165813831258
:100B800064004608313C8A11031DCA2DD81683160D
:100B9000D812831264004708313C8A11031DD42DFA
:100BA000581683165812831264004808313C8A1183
:100BB000031DDE2DD8158316D81183126400490851
:100BC000313C8A11031DE82D5815831658118312E4
:100BD00064004A08313C8A11031DF22DD814831693
:100BE000D810831264004B08313C8A11031DFC2D80
:100BF0005814831658108312570803178D000313D7
:100C000058088A0115200800FD308A010D20DB00FC
:100C1000FE308A010D20D900FF308A010D20DA0054
:100C2000E0308B00831620308C00831264008A1120
:100C3000541C1E2E541083165410831264008A1103
:100C4000D41C242E8A01FB2464008A11D41F2A2E6E
:100C50008A112C268A01162ED4138316D4138312DC
:100C6000A1016A088A014A20CC006A08A1000A3062
:100C70008A014F20CE004C0884004E088A0164206F
:100C8000CE00CF0064004E084F048A1103194A2E8B
:100C90008A117B2E64005B08253C8A11031D522EAD
:100CA0008A01572B4030A1006A088A014F20CC00EE
:100CB0006A08A1005B308A014F20CE004C088400F6
:100CC0004E088A016420CE00CF0064004E084F0415
:100CD0008A1103196F2E4130EA028A010329640048
:100CE0006A08203C8A11031D792EE801E9018A0176
:100CF000BB2C8A15632864005B08003C8A11031D25
:100D0000852E8A0155298A11DD2E64005B08013C7D
:100D10008A11031D8F2E8A0187298A11DD2E640016
:100D20005B08023C8A11031D992E8A01B9298A1198
:100D3000DD2E64005B08033C8A11031DA32E8A018B
:100D4000EB298A11DD2E64005B08043C8A11031D27
:100D5000AD2E8A01252A8A11DD2E64005B08053C30
:100D60008A11031DB72E8A01572A8A11DD2E6400CD
:100D70005B08063C8A11031DC12E8A01892A8A114B
:100D8000DD2E64005B08073C8A11031DCB2E8A010F
:100D9000BB2A8A11DD2E64005B08083C8A11031D02
:100DA000D52E8A01ED2A8A11DD2E64005B08093CEC
:100DB0008A11031DDD2E8A01252B8A015529590828
:100DC000A200093C8A11031C152FA20D8A11EF26DF
:100DD000A10022108A11EF268A0021088200073024
:060DE0008A002208002F2A
:100E000082070834633408346B3408346B34083494
:100E1000C3340C343A340D3462340A34F0340734B9
:100E20001734073417340934DA348A156328051661
:100E300083160512831206168316061283120712F2
:100E40008316071283128711831687118312871363
:100E500083168713831207108316071083128710D7
:100E60008316871083128A018D20851683168512BA
:100E700083120715831607118312051283160512B4
:100E800083120612831606128312051083160510AC
:100E9000831206138316061383128A018D2085148C
:100EA0008316851083128716831687128312851284
:100EB00083168512831207118316071183120511F9
:100EC00083160511831207138316071383128A01F1
:100ED0008D20871583168711831207168316071234
:100EE000831285108316851083128712831687124A
:100EF00083128A018D2064005908083C8A11031965
:100F0000832F8A11CB2F051683160512831206161E
:100F10008316061283120712831607128312871193
:100F20008316871183128A018D20851683168512F8
:100F300083120715831607118312051283160512F3
:100F4000831206128316061283128A018D208514DD
:100F500083168510831287168316871283128512D3
:100F600083168512831207118316071183128A01D3
:100F70008D20871583168711831207168316071293
:100F800083128510831685108312871283168712A9
:100F900083128A018D200516831605128312061608
:100FA0008316061264008A118312691ADB2F8711D7
:100FB00083168711831264008A116818E32F0712C1
:100FC0008316071283128A018D20851683168512D7
:100FD000831207158316071164008A118312E91B17
:100FE000F52F051283160512831264008A11E91980
:100FF000FD2F061283160612831264008A15681FDD
:101000000528051483160510831264008A15E81D4F
:101010000D2806178316061383128A018D20851466
:1010200083168510831287168316871264008A152B
:101030008312691B1F288512831685128312640090
:101040008A1569192728071183160711831264006E
:101050008A15E81E2F2805158316051183126400D2
:101060008A15681D372807178316071383128A010C
:101070008D2064008A15E91A412885108316851091
:10108000831264008A15E81849288712831687128C
:10109000831264008A15E81F512887178316871367
:1010A000831264008A15681E5928071483160710D6
:1010B000831264008A15F51F612887148316871030
:1010C00083128A1554296408870063088600620821
:1010D00085008A1554295A0AD200DC015208A7005B
:1010E000A8011930A300A4018A016F20DE0064006A
:1010F0005908023C8A15031D86285208A700A8013A
:101100001530A300A4018A016F20DE00DC01640019
:101110005C085E028A15031CBB28DD01DD0164004A
:1011200009305D028A150318B72862088500630834
:101130008600640887005908023A031DA2285E0849
:10114000DF00A5285C08013EDF00DF0BA52865084D
:10115000850066088600670887005C085E02013E1D
:10116000DF00DF0BB128DD0A8A15031D8F28DC0A9A
:101170008A15031D872862088500630886006408B5
:1011800087008A1554295A0AD200DC015208A700A8
:10119000A8011930A300A4018A016F20DE006400B9
:1011A0005908043C8A15031DDE285208A700A8012F
:1011B0000F30A300A4018A016F20DE00DC0164006F
:1011C0005C085E028A15031C0C29DD01DD01640048
:1011D0000A305D028A1503180829FF308500FF30A8
:1011E0008600FD3087005C08013EDF00DF0BF6283B
:1011F0006508850066088600670887005C085E024F
:10120000013EDF00DF0B0229DD0A8A15031DE728F6
:10121000DC0A8A15031DDF2864005908053C8A157D
:10122000031D14298A154C29DC015208A700A801C6
:101230001930A300A4018A016F20DE00DC016400E4
:101240005C085E028A15031C4C29DD01DD01640087
:1012500007305D028A150318482962088500630873
:101260008600640887005C08013EDF00DF0B36293A
:10127000FF308500FF308600FD3087005C085E028D
:10128000013EDF00DF0B4229DD0A8A15031D2729F5
:10129000DC0A8A15031D1F29620885006308860081
:1012A000640887008A1554296208E5006308E6008F
:1012B0006408E70008000508E5005A0AD200DC01CE
:1012C0005208A700A8011930A300A4018A016F20C9
:1012D000DE00DC0164005C085E028A15031C8329C1
:1012E000710885005C08013EDF00DF0B7529650889
:1012F00085005C085E02013EDF00DF0B7D29DC0A11
:101300008A15031D6A297108850008000608E60091
:101310005A0AD200DC015208A700A8011930A30024
:10132000A4018A016F20DE00DC0164005C085E021B
:101330008A15031CAC295C08013EDF00DF0B9E29E7
:10134000660886005C085E02013EDF00DF0BA6290E
:10135000DC0A8A15031D9529710886000800070814
:10136000E7005A0AD200DC015208A700A801193090
:10137000A300A4018A016F20DE00DC0164005C0888
:101380005E028A15031CD729710887005C08013E9C
:10139000DF00DF0BC929670887005C085E02013E99
:1013A000DF00DF0BD129DC0A8A15031DBE29710875
:1013B000870008000516831605128312871383160B
:1013C000871383128A018D20851683168512831256
:1013D0000512831605128312051083160510831259
:1013E0008A018D2085148316851083128512831639
:1013F0008512831205118316051183128A018D202F
:101400008715831687118312851083168510831222
:101410008A018D2006168316061283128711831601
:101420008711831207108316071083128710831603
:10143000871083128A018D200715831607118312E6
:1014400006128316061283120613831606138312DE
:101450008A018D208716831687128312071183163F
:101460000711831207138316071383128A018D2035
:1014700007168316071283128712831687128312A8
:101480008A018D2005168316051264008A158312C1
:1014900068184E2A071283160712831264008A15F1
:1014A000E81F562A87178316871383128A018D2017
:1014B00085168316851264008A158312E91B642A37
:1014C000051283160512831264008A15681F6C2AA0
:1014D00005148316051083128A018D208514831646
:1014E000851064008A158312691B7A2A8512831677
:1014F0008512831264008A15E81E822A0515831658
:10150000051183128A018D208715831687116400C7
:101510008A158312E91A902A851083168510831282
:101520008A018D2006168316061264008A1583121E
:10153000691A9E2A871183168711831264008A15FF
:10154000681EA62A071483160710831264008A15E2
:10155000F51FAE2A87148316871083128A018D2007
:1015600007158316071164008A158312E919BC2A2E
:10157000061283160612831264008A15E81DC42A17
:1015800006178316061383128A018D208716831689
:10159000871264008A1583126919D22A07118316EB
:1015A0000711831264008A15681DDA2A071783164B
:1015B000071383128A018D2064008A15681CE42AAF
:1015C000071683160712831264008A15E818EC2A9E
:1015D00087128316871283128A018D208A15542957
:1015E00064008A15871BF62A8A15FB2A80300702B9
:1015F000F1008A15AF2164008A150519012B8A159F
:10160000062B04300502F1008A155B2164008A155F
:1016100085180C2B8A15112B02300502F1008A1552
:101620005B2164008A150719172B8A151C2B0430BF
:101630000702F1008A15AF2164008A15071A222BD0
:101640008A15272B10300702F1008A15AF2164009C
:101650008A1587192D2B8A15322B08300702F100C5
:101660008A15AF2164008A15071B382B8A153D2B7C
:1016700040300702F1008A15AF2164008A15851AEF
:10168000432B8A15482B20300502F1008A155B2177
:1016900064008A1507184E2B8A15522B0703F10098
:1016A0008A15AF2164008A150518582B8A155C2B02
:1016B0000503F1008A155B2164008A15061A622B66
:1016C0008A15672B10300602F1008A158621640006
:1016D0008A15871A6D2B8A15722B20300702F100AC
:1016E0008A15AF2164008A15051A782B8A157D2B7F
:1016F00010300502F1008A155B2164008A15061B73
:10170000832B8A15882B40300602F1008A1586212A
:1017100064008A1587188E2B8A15932B02300702D6
:10172000F1008A15AF218A15952B64008A15E41BF8
:101730009B2B8A15A02B80300707F1008A15AF215B
:1017400064008A156219A62B8A15AB2B0430050795
:10175000F1008A155B2164008A15E218B12B8A1505
:10176000B62B02300507F1008A155B2164008A154B
:101770006419BC2B8A15C12B04300707F1008A15A8
:10178000AF2164008A15641AC72B8A15CC2B103040
:101790000707F1008A15AF2164008A15E419D22BDE
:1017A0008A15D72B08300707F1008A15AF2164008E
:1017B0008A15641BDD2B8A15E22B40300707F100E8
:1017C0008A15AF2164008A15E21AE82B8A15ED2BE1
:1017D00020300507F1008A155B2164008A15641822
:1017E000F32B8A15F72B070AF1008A15AF21640045
:1017F0008A156218FD2B8A15012C050AF1008A153D
:101800005B2164008A15631A072C8A150C2C103092
:101810000607F1008A15862164008A15E41A122C45
:101820008A15172C20300707F1008A15AF216400B4
:101830008A15621A1D2C8A15222C10300507F1001A
:101840008A155B2164008A15631B282C8A152D2CB0
:1018500040300607F1008A15862164008A15E418D5
:10186000332C8A15382C02300707F1008A15AF2176
:101870008A15542907168316071283128A018D20B0
:101880000516831605128312871683168712831294
:101890000712831607128312871383168713831286
:1018A0008A018D20851683168512831207158316EB
:1018B00007118312051283160512831287128316ED
:1018C00087128312051083160510831207138316DF
:1018D000071383128A018D208514831685108312C5
:1018E000061683160612831285128316851283123A
:1018F000071183160711831206138316061383122A
:1019000005118316051183128A018D208715831610
:101910008711831285108316851083120612831691
:101920000612831207108316071083128A018D2076
:1019300087118316871183128710831687108312ED
:101940008A018D2087158316871183128A018D20C5
:1019500064008A15F51FB02C871483168710831234
:1019600085148316851083120616831606128312B9
:1019700007148316071064008A158312691AC42C91
:1019800087118316871183128A018D20851683168D
:101990008512831207158316071183120515831606
:1019A0000511831206178316061364008A15831225
:1019B000E91ADE2C851083168510831264008A15BF
:1019C000E919E62C061283160612831264008A15A2
:1019D000681AEE2C07108316071083128A018D20D7
:1019E0008716831687128312051683160512831233
:1019F0000514831605108312071783160713640056
:101A00008A1583126919082D07118316071183128D
:101A100064008A15691B102D8512831685128312A6
:101A200064008A15E81A182D051183160511831212
:101A300064008A15E819202D0613831606138312F5
:101A40008A018D2087178316871364008A158312F5
:101A5000681B2E2D051083160510831264008A154D
:101A60006819362D07138316071383128A018D20F8
:101A700007168316071264008A158312E91B442D8A
:101A8000051283160512831264008A15E8184C2D7E
:101A9000871283168712831264008A15E81B542D5F
:101AA00087138316871383128A018D2064008A1599
:101AB00068185E2D07128316071283128A018D2083
:101AC0008A15542907158316071183128A018D2060
:101AD0000616831606128312871683168712831240
:101AE0000711831607118312071383160713831236
:101AF00006138316061383128A018D200716831698
:101B00000712831287158316871183120612831614
:101B10000612831287128316871283128A018D2080
:101B200085148316851083120516831605128312F9
:101B300007128316071283128711831687118312E7
:101B400087138316871383120710831607108312D7
:101B500087108316871083128A018D2085168316BD
:101B600085128312051283160512831285108316BF
:101B70008510831205108316051083120511831634
:101B8000051183128A018D20851283168512831216
:101B90008A018D2007158316071183128A018D2073
:101BA000061783160613831207178316071383126B
:101BB0000616831606128312871683168712640090
:101BC0008A1583126919E82D0711831607118312EC
:101BD0008A018D2007168316071283128715831634
:101BE000871164008A158312F51FFA2D8714831656
:101BF0008710831264008A15E919022E06128316D3
:101C00000612831264008A15E8180A2E87128316BA
:101C10008712831264008A15E819122E06138316A0
:101C20000613831264008A1568191A2E0713831687
:101C3000071383128A018D20851483168510831261
:101C400005168316051264008A15831268182C2E57
:101C5000071283160712831264008A15691A342E3C
:101C6000871183168711831264008A15E81F3C2EA2
:101C7000871783168713831264008A15681E442E03
:101C800007148316071083128A018D208516831688
:101C9000851264008A158312681F522E051483165C
:101CA0000510831264008A15E81E5A2E0515831646
:101CB0000511831264008A15E91B622E0512831632
:101CC0000512831264008A15E91A6A2E851083169C
:101CD000851083128A018D2064008A15691B742E79
:101CE00085128316851283128A018D208A15542944
:061CF00063008A15782E46
:02400E00D43CA0
:1042E80001001000600000000000A0001000440061
:1042F80002000800C4005000F80014000000440048
:104308000100540000002800020080000300800023
:104318000100C0000000E00000007000000038004C
:0C43280000001C0002000C000300040058
:0643FA00000001000300B9
:00000001FF
